{
  "contractName": "DemoContract",
  "abi": [
    {
      "constant": false,
      "inputs": [
        {
          "name": "a",
          "type": "int256"
        },
        {
          "name": "b",
          "type": "uint256"
        },
        {
          "name": "c",
          "type": "bool"
        },
        {
          "name": "d",
          "type": "address"
        },
        {
          "name": "e",
          "type": "string"
        },
        {
          "name": "f",
          "type": "bytes8"
        }
      ],
      "name": "demoFunction",
      "outputs": [],
      "payable": false,
      "stateMutability": "nonpayable",
      "type": "function"
    }
  ],
  "bytecode": "0x608060405234801561001057600080fd5b506101a7806100206000396000f3fe608060405260043610610041576000357c0100000000000000000000000000000000000000000000000000000000900463ffffffff168063fee1de6414610046575b600080fd5b34801561005257600080fd5b50610171600480360360c081101561006957600080fd5b810190808035906020019092919080359060200190929190803515159060200190929190803573ffffffffffffffffffffffffffffffffffffffff169060200190929190803590602001906401000000008111156100c657600080fd5b8201836020820111156100d857600080fd5b803590602001918460018302840111640100000000831117156100fa57600080fd5b91908080601f016020809104026020016040519081016040528093929190818152602001838380828437600081840152601f19601f820116905080830192505050505050509192919290803577ffffffffffffffffffffffffffffffffffffffffffffffff19169060200190929190505050610173565b005b50505050505056fea165627a7a72305820c80ddce20fd22df0fa7dcb89e8c3a14d6b0f4573ac6ae840307ec7e4dde115030029",
  "source": "pragma solidity ^0.5.0;\n\ncontract DemoContract {\n\n    function demoFunction(int256 a, uint256 b, bool c, address d, string memory e, bytes8 f) public {\n    }\n}",
  "sourcePath": "/Users/wmitsuda/wmitsuda-github/demo-contract/contracts/DemoContract.sol",
  "compiler": {
    "name": "solc",
    "version": "0.5.0+commit.1d4f565a.Emscripten.clang"
  },
  "schemaVersion": "3.0.2",
  "updatedAt": "2019-03-31T21:22:25.709Z",
  "devdoc": {
    "methods": {}
  },
  "userdoc": {
    "methods": {}
  }
}