{
  "contractName": "DemoContract",
  "abi": [
    {
      "anonymous": false,
      "inputs": [
        {
          "indexed": false,
          "name": "a",
          "type": "int256"
        },
        {
          "indexed": false,
          "name": "b",
          "type": "uint256"
        },
        {
          "indexed": false,
          "name": "c",
          "type": "bool"
        },
        {
          "indexed": false,
          "name": "d",
          "type": "address"
        },
        {
          "indexed": false,
          "name": "e",
          "type": "string"
        },
        {
          "indexed": false,
          "name": "f",
          "type": "bytes8"
        }
      ],
      "name": "DemoEvent",
      "type": "event"
    },
    {
      "anonymous": false,
      "inputs": [
        {
          "indexed": false,
          "name": "a",
          "type": "int256"
        },
        {
          "indexed": false,
          "name": "b",
          "type": "uint256"
        },
        {
          "indexed": false,
          "name": "c",
          "type": "bool"
        },
        {
          "indexed": false,
          "name": "d",
          "type": "address"
        },
        {
          "indexed": false,
          "name": "e",
          "type": "string"
        },
        {
          "indexed": false,
          "name": "f",
          "type": "bytes8"
        }
      ],
      "name": "DemoEvent22",
      "type": "event"
    },
    {
      "constant": false,
      "inputs": [],
      "name": "init",
      "outputs": [],
      "payable": false,
      "stateMutability": "nonpayable",
      "type": "function"
    },
    {
      "constant": false,
      "inputs": [
        {
          "name": "a",
          "type": "int256"
        },
        {
          "name": "b",
          "type": "uint256"
        },
        {
          "name": "c",
          "type": "bool"
        },
        {
          "name": "d",
          "type": "address"
        },
        {
          "name": "e",
          "type": "string"
        },
        {
          "name": "f",
          "type": "bytes8"
        }
      ],
      "name": "demoFunction",
      "outputs": [],
      "payable": false,
      "stateMutability": "nonpayable",
      "type": "function"
    }
  ],
  "bytecode": "0x608060405234801561001057600080fd5b5061068d806100206000396000f3fe60806040526004361061004c576000357c0100000000000000000000000000000000000000000000000000000000900463ffffffff168063e1c7392a14610051578063fee1de6414610068575b600080fd5b34801561005d57600080fd5b50610066610195565b005b34801561007457600080fd5b50610193600480360360c081101561008b57600080fd5b810190808035906020019092919080359060200190929190803515159060200190929190803573ffffffffffffffffffffffffffffffffffffffff169060200190929190803590602001906401000000008111156100e857600080fd5b8201836020820111156100fa57600080fd5b8035906020019184600183028401116401000000008311171561011c57600080fd5b91908080601f016020809104026020016040519081016040528093929190818152602001838380828437600081840152601f19601f820116905080830192505050505050509192919290803577ffffffffffffffffffffffffffffffffffffffffffffffff191690602001909291905050506102ca565b005b600060019054906101000a900460ff16806101b457506101b3610650565b5b806101cb57506000809054906101000a900460ff16155b1515610265576040517f08c379a000000000000000000000000000000000000000000000000000000000815260040180806020018281038252602e8152602001807f436f6e747261637420696e7374616e63652068617320616c726561647920626581526020017f656e20696e697469616c697a656400000000000000000000000000000000000081525060400191505060405180910390fd5b60008060019054906101000a900460ff1690506001600060016101000a81548160ff02191690831515021790555060016000806101000a81548160ff02191690831515021790555080600060016101000a81548160ff02191690831515021790555050565b7f86bd05012f6bf48faed59d6f6c0bdb1e57ed96d01d77d5a36ebca4d56541d7fd86868686868660405180878152602001868152602001851515151581526020018473ffffffffffffffffffffffffffffffffffffffff1673ffffffffffffffffffffffffffffffffffffffff168152602001806020018377ffffffffffffffffffffffffffffffffffffffffffffffff191677ffffffffffffffffffffffffffffffffffffffffffffffff19168152602001828103825284818151815260200191508051906020019080838360005b838110156103b557808201518184015260208101905061039a565b50505050905090810190601f1680156103e25780820380516001836020036101000a031916815260200191505b5097505050505050505060405180910390a17f909c4c581d490171264af632a767d4b4193d097f074969d17a009a59e53c814886868686868660405180878152602001868152602001851515151581526020018473ffffffffffffffffffffffffffffffffffffffff1673ffffffffffffffffffffffffffffffffffffffff168152602001806020018377ffffffffffffffffffffffffffffffffffffffffffffffff191677ffffffffffffffffffffffffffffffffffffffffffffffff19168152602001828103825284818151815260200191508051906020019080838360005b838110156104df5780820151818401526020810190506104c4565b50505050905090810190601f16801561050c5780820380516001836020036101000a031916815260200191505b5097505050505050505060405180910390a17f86bd05012f6bf48faed59d6f6c0bdb1e57ed96d01d77d5a36ebca4d56541d7fd86868686868660405180878152602001868152602001851515151581526020018473ffffffffffffffffffffffffffffffffffffffff1673ffffffffffffffffffffffffffffffffffffffff168152602001806020018377ffffffffffffffffffffffffffffffffffffffffffffffff191677ffffffffffffffffffffffffffffffffffffffffffffffff19168152602001828103825284818151815260200191508051906020019080838360005b838110156106095780820151818401526020810190506105ee565b50505050905090810190601f1680156106365780820380516001836020036101000a031916815260200191505b5097505050505050505060405180910390a1505050505050565b600080303b9050600081149150509056fea165627a7a72305820767494cab2526060930836fe646142bf2df4fe685d4ae82ba2423debd3acf4a70029",
  "source": "pragma solidity ^0.5.0;\n\nimport \"zos-lib/contracts/Initializable.sol\";\n\ncontract DemoContract is Initializable {\n\n    function init() public initializer {\n    }\n\n    event DemoEvent(\n        int256 a,\n        uint256 b,\n        bool c,\n        address d,\n        string e,\n        bytes8 f\n    );\n\n    event DemoEvent22(\n        int256 a,\n        uint256 b,\n        bool c,\n        address d,\n        string e,\n        bytes8 f\n    );\n\n    function demoFunction(int256 a, uint256 b, bool c, address d, string memory e, bytes8 f) public {\n        emit DemoEvent(a, b, c, d, e, f);\n        emit DemoEvent22(a, b, c, d, e, f);\n        emit DemoEvent(a, b, c, d, e, f);\n    }\n}",
  "sourcePath": "/Users/wmitsuda/wmitsuda-github/demo-contract/contracts/DemoContract.sol",
  "compiler": {
    "name": "solc",
    "version": "0.5.0+commit.1d4f565a.Emscripten.clang"
  },
  "schemaVersion": "3.0.6",
  "updatedAt": "2019-04-01T18:20:53.545Z",
  "devdoc": {
    "methods": {}
  },
  "userdoc": {
    "methods": {}
  }
}